:020000040800F2
:1000000000C00020CD0600081D070008914F000821
:10001000974F00089D4F0008A34F00080000000004
:10002000000000000000000000000000B5680008AB
:100030001D070008000000004F6900085F69000804
:100040001D0700081D0700081D0700081D07000800
:100050001D0700081D0700081D0700081D070008F0
:100060001D0700081D0700081D070008451C0008A3
:10007000511C00085D1C0008691C0008751C000864
:10008000811C00088D1C00081D070008390D0008A0
:10009000350C00081D0700083D0D00081D0700086D
:1000A0001D0700081D0700081D0700081D070008A0
:1000B0001D07000800000000000000001D070008E8
:1000C0001D0700080000000000000000811A000861
:1000D000000000001D0700081D07000800000000C8
:1000E0001D0700081D0700080000000000000000B8
:1000F0000000000000000000000000000000000000
:100100000000000000000000000000008D1A000840
:1001100000000000000000001D0700081D07000887
:10012000991C0008A51C0008B11C0008BD1C000893
:10013000C91C0008000000000000000000000000D2
:100140001D0700081D0700081D0700081D070008FF
:10015000D51C0008E11C00081D0700081D07000849
:100160001D0700081D0700081D070008000000000B
:100170001D0700081D070008000000000000000027
:100180001D0700081D0700081D07000810B5054CD5
:10019000237833B9044B13B10448AFF30080012333
:1001A000237010BD3802002000000000C8B2000813
:1001B00008B5034B1BB103490348AFF3008008BDEA
:1001C000000000003C020020C8B20008A3F5803AFD
:1001D000704700BF174B002B08BF134B9D46FFF71E
:1001E000F5FF00218B460F461348144A121A08F0F7
:1001F0005DFC0E4B002B00D098470D4B002B00D020
:1002000098470020002104000D000D48002802D06E
:100210000C4806F041F808F0A7FB2000290008F080
:1002200007F806F039FA00BF0000080000000000DF
:100230006581000800C00020380200201825002039
:10024000996200080000000010B5044604F089FA25
:10025000204610BD10B5044604F067FB204610BDD3
:1002600038B51C2204460D46002108F01FFC20462C
:10027000294604F0BEFB204638BD00002DE9F047BA
:100280002DED088B9548DFF8A892DFED95AA84B094
:1002900008F016FD002634463546924B92485B68BE
:1002A0001B6803F023FD09EE900A904803F01EFD41
:1002B00008EE900A484603F019FD09EE100A484678
:1002C00003F014FD9FED8A7ADFED8A6A8A4BA8EE6F
:1002D000AA7A5A68D3F80080D2F800A0C7EE268A1E
:1002E000BDEE008AA9EEAA8A07EE900AB6EE00BA21
:1002F00027EEAAAA28EE0B8ADFED807A28EE278A5D
:1003000068EEA78AB5EEC08AF1EE10FA29EE277AD8
:100310005DD4B4EE678AF1EE10FAC8BFB0EE678A1A
:10032000F5EEC08AF1EE10FA00F1C480F4EEE78A2F
:10033000F1EE10FA00F3CE80B5EEC08AF1EE10FABD
:1003400048D4B4EEE78AF1EE10FA46DCB0EE489AF3
:10035000F5EEC08AF1EE10FA42D4DFED689AF4EEC1
:10036000E78AF1EE10FAD8BFF0EE689ADFED647A12
:10037000B4EEE77AF1EE10FA67DD624808F0A0FC0F
:10038000002C64D1604FBB683A681A604FF47A70F1
:1003900006F080FAFB683A681A601AEA080403D08B
:1003A0005A4808F08DFC0124B5EEC0AAF1EE10FA0F
:1003B000574804D4B4EEEAAAF1EE10FA3EDD76BB5B
:1003C00004F0D9F90126642006F064FA65E79FED90
:1003D000518AA5E79FED4F9ABAE79FED489AB7E794
:1003E000DFED4C9AC2E79FED4B9AF0EE689ABDE7BD
:1003F00004F02EFADFED487A07EE100AB4EEE77A41
:10040000F1EE10FA54DD454808F05AFC50E004F0D3
:10041000E5F9434804F032FA01240025C4E704F06A
:1004200017FADFED3D7A07EE100AB4EEE77AF1EE47
:1004300010FAC8DD3B4808F043FCC4E704F0CEF9ED
:10044000334804F01BFA0026BDE7002CA5D019EEB6
:10045000100A09F047F802460B4619EE900ACDE95A
:10046000022309F03FF8DDE90223CDE900012E481F
:1004700005F086F938EE288A68EE0B7A17EE900AB6
:1004800009F030F802460B46284805F079F939EEB4
:10049000699AF2EE047AB0EEC99AB4EEE79AF1EEF8
:1004A00010FA1F48B3DD002DA2D104F064F9012534
:1004B0002C4679E7DFED178AB5EEC08AF1EE10FA27
:1004C00091D4B4EEE78AF1EE10FA7FF73FAF9FEDDB
:1004D0000B9A42E7DFED098AEEE700BF889C00082F
:1004E000333353402804002054020020C40200206B
:1004F0009A9999BE9A991940F40300200000C842C5
:100500000000A042949C0008D8030020A29C000890
:10051000C003002000000000CDCCCC3DE6AB0008BD
:1005200010040020E39C0008A49C0008CD9C000857
:100530005003002070B50546064655F8044B54B9E3
:1005400005F07AF9346824B9284606F05BF935607D
:100550002C4605F07BF9AC4204D0034903487322D2
:1005600005F008FB204670BD2F9D00083E9D000849
:1005700008B50348FFF7DEFFBDE8084006F04AB9BA
:100580002807002008B50348FFF7D4FFBDE808405E
:1005900006F05EB92807002038B50546064B45F839
:1005A000043B0446FFF7E4FF284604F0BFF9204669
:1005B000FFF7E8FF204638BD6C9D000810B50446E3
:1005C000FFF7EAFF2046702106F089F8204610BDAB
:1005D000F8B5304E304F314C314D3246032138465C
:1005E00003F096FB38462F4F2246294605F052FE6F
:1005F00032460421384603F08BFB38462A4F224608
:10060000294605F047FE32460021284E384603F0C1
:100610007FFB224629463846254D05F03BFE012149
:100620003046FFF71DFE22462946304605F032FED1
:10063000204B214E18461C22002108F037FA1021C9
:1006400004F0DEF905213046FFF70AFE30461B4E66
:100650002246294605F01EFE06213046FFF700FE21
:100660002946174D2246304605F014FE284604F070
:1006700028F92846134D1449224605F00BFE28465A
:1006800004F01FF9224628460F49BDE8F84005F05E
:1006900001BE00BF0000C07F540200200000002007
:1006A00099050008C402002050030020F403002034
:1006B00055020008D803002034030020280400203D
:1006C00010040020C003002049020008DFF834D0E5
:1006D00003F092FA002103E00B4B5B5843500431C6
:1006E0000A480B4B42189A42F6D30A4A02E000230A
:1006F00042F8043B084B9A42F9D3FFF76BFD704771
:10070000FEE7000000C00020D4B200080000002076
:10071000380200203802002018250020FEE730B5FE
:1007200097B014220021684608F0C0F94022002149
:1007300006A808F0BBF90425012405A8059507942F
:1007400002F0F8F810B1002017B030BD1023059367
:10075000B0230D930223CDE90B40CDE90F340620E1
:100760002823CDE91103072305A8CDE913351595F5
:1007700002F0E0F804460028E5D102F08BFE0F22DB
:10078000032329466846CDE90023CDE902440494B9
:1007900002F07AFBB0FA80F04009D5E708B5FFF720
:1007A000BEFF10B9014805F01DFC08BD849E00087D
:1007B0002DE9F341A1F1F0081FFA88F8B8F10F0F05
:1007C00004460D461DD93949284604F04FF93749EA
:1007D0000746284604F060F9B8F10F0F0646276077
:1007E00007D90146284600F0A1FD0021284600F067
:1007F00027FE236801330BD12D492E48352205F001
:10080000B9F92D49284604F031F92B490746E0E7AC
:10081000731C03D1264929483622F0E700234FF400
:100820008022C4E901230422626101226365C4E9D4
:100830000923C4E90333238384F82030E36284F876
:10084000303084F8383003F18043E26103F504333B
:100850004FF48052C6F3843684F866606263DA6CC3
:10086000A4F8645042F40052DA64DA6C02F40052E4
:100870000192019AD3F8882042F04052C3F88820B0
:10088000204601F059FA10B10D4805F0ABFB7F216D
:10089000204601F022FE30B97F21204602B0BDE89B
:1008A000F04101F0D0BD02B0BDE8F0817C9D0008B0
:1008B000EA9E0008FC9E0008F49D0008269F0008A0
:1008C0003F9F000810B586B00446182200216846F4
:1008D00008F0ECF8042206237F21CDE90132CDE9AE
:1008E000031294F86620122A4FD8DFE802F00A0EAD
:1008F000282A2C2E30323436383A3C3E4042444688
:100900004800234A0092029301E0224B009369467B
:10091000204601F037FB204601F020FD0A21204649
:1009200001F0DCFA00282ED1204601F028FB80B22D
:10093000194A936823F0E073936006B010BD174B1B
:10094000E4E7174BE2E7174BE0E7174BDEE7174BFF
:10095000DCE7174BDAE7174BD8E7174BD6E7174B0F
:10096000D4E7174BD2E7174BD0E7174BCEE7174B1F
:10097000CCE7174BCAE7174BC8E7174AC2E7174B34
:1009800000930723BFE70020D2E70020D5E700BF90
:1009900001000080020030040003045004006008DD
:1009A0000800900C1000C0102000F0144000201926
:1009B0008000501D000180210002B0250004002AA3
:1009C0000008302E00106032002090360040C03AFF
:1009D0000080F03E00002143000052C7000084CB9D
:1009E00073B500F0B1FE041E33DB1B4E56F8240035
:1009F00000282ED08423194D6343EB58DA69110681
:100A000009D5DA69120606D51B681B0603D5144BF7
:100A100001211B68984784236343EB58DA699106E8
:100A20000BD5DA69920608D51B68980605D50C4BDC
:100A300056F824001B6800219847842044432B5912
:100A4000DA69110705D5DA69120742BF9B8C9BB2A0
:100A5000019302B070BD00BF480400205404002080
:100A6000440400200148FFF7BBBF00BF00800040E6
:100A70000148FFF7B5BF00BF004400400148FFF741
:100A8000AFBF00BF00380140002808DB0123420946
:100A900000F01F0003FA00F0014B43F822007047FA
:100AA00000E100E000280DDB4309012200F01F00F7
:100AB00002FA00F02033044A42F82300BFF34F8FBC
:100AC000BFF36F8F704700BF00E100E0034B196078
:100AD0004168034B43F82120704700BF44040020C5
:100AE00048040020D0E9000330B4204CA04222D0BA
:100AF00004F53844A04218D0A4F57444A04217D09D
:100B00000024204684256B43194DEB58CAB11A685E
:100B1000A1B942F020021A60164B00F110029B6846
:100B200043F8224030BCFFF7AFBF134C2520E9E764
:100B3000124C2620E6E7124C4620E3E742F0800202
:100B4000E9E71A6849B922F020021A601B6813F01D
:100B5000800F09D130BCFFF7A5BF22F080021A60D8
:100B60001B6813F0200FF4E730BC70470080004092
:100B70005404002000ED00E07D0A0008710A00081E
:100B8000650A0008F8B54468174E842303FB046324
:100B900005469A68B2F5805F15D11A69B2B940F27C
:100BA000FF12A3F85C20842303FB0463B3F85C709A
:100BB000284600F003FD0028FAD084235C43335913
:100BC000988C3840F8BD1AB91A6932B9FF22E8E7A3
:100BD000B2F1805F05D11A690AB97F22E1E73F22AD
:100BE000DFE70022DDE700BF5404002070B546684F
:100BF00005460C46284600F0F1FC0028FAD0842374
:100C00005E43034B9B59C4F308041C8570BD00BFB1
:100C10005404002008B5FFF755FE07EE900A9FED3B
:100C2000047AF8EE677A67EE877A17EE900A08BDC5
:100C3000010880393A4B5A69D20770B52ED59D68A4
:100C4000384C996838489A6805EA0406AC4301EACA
:100C5000000104BF01249C6022F06F428142304BAE
:100C600008BF4FF4807022F47C0208BF9860120C19
:100C70002E481204824204BF4FF480309860294B02
:100C80009E4205D0284B994202D0284B9A4205D16A
:100C9000274B284A1B68106801219847204BD968C8
:100CA0005A698E070BD0950709D55A6922F00202BE
:100CB0005A611F4B1F4A1B68106800219847184B48
:100CC00099695A695B698C0709D5900507D519049C
:100CD00005D5174B174A1B68106805219847104A1D
:100CE00095695469526915F0040504F4806408D0CC
:100CF0003CB1120405D50E4B0E4A1B681068072143
:100D00009847074B5B6955B14CB11B0407D5084B9D
:100D1000084A1B681068BDE870400221184770BD82
:100D200000640040030000040003000800000310FA
:100D3000E4050020E0050020FFF77CBFFFF77ABF45
:100D400030B591FAA1F391FAA1F1B3FA83F30468F3
:100D50005B000325B1FA81F105FA03F3490024EAA7
:100D600003038A401343036030BD00001FB51D4BD1
:100D7000072834D8DFE800F004121D33333333285A
:100D8000DA6C42F00102DA64DB6C03F001030093D9
:100D9000009B4FF0904005B05DF804FBDA6C124800
:100DA00042F00202DA64DB6C03F002030193019B60
:100DB000F1E7DA6C0D4842F00402DA64DB6C03F010
:100DC00004030293029BE6E7DA6C094842F08002D2
:100DD000DA64DB6C03F080030393039BDBE70548D5
:100DE00005F000F900100240000400480008004827
:100DF000001C0048569F0008431C10B5044604D14F
:100E000006490748772204F0B5FE4FF4707100F0F0
:100E10008DFA04F00F040120A04010BDBA9F000815
:100E2000C59F00084B1C70B504460E46018218D0C1
:100E3000C1F30310FFF79AFF05463046FFF7DCFFCA
:100E4000238A084A656103F00F03206052F82330BB
:100E5000A36105F11003636005F118032835A36051
:100E6000E56070BD7CA00008B0F9100000F0E8BAA1
:100E70000A46D0E905010AB9FFF762BF0122FBE784
:100E800008B500F01FFE002008BD000010B504F0FA
:100E900049FF124A124914684FF08043586A0B8880
:100EA00010601B1B0344B3F5803F15D34FF47A70D9
:100EB000B3FBF0F200FB123305E00132A3F57A73C5
:100EC000B3F57A7FF9D2074C0B8023681344236073
:100ED00004F03EFF206810BD0022F1E7EC05002081
:100EE000E8050020F00500200048704728A0000811
:100EF000024BD869DA698242FBD17047007C00401E
:100F000008B504F00FFF074B01221A70064B0022B0
:100F10001A70064B0222C3F808219A60BDE8084007
:100F200004F016BF310600203806002000E100E082
:100F300010B504F0F7FE134B1A7842B9124A126842
:100F400011680907FCD50821516001221A700F4C65
:100F500023781BB105F040F9002323700C4A0023CD
:100F600013700C4A13700C4B0222C3F88820BFF395
:100F70004F8FBFF36F8FBDE81040C3F8882104F096
:100F8000E7BE00BF32060020F80500203A06002028
:100F9000380600203106002000E100E070B53F4B2C
:100FA0001968AAB021B12AB0BDE87040FFF7C0BFF0
:100FB0000124502216A81C60019107F077FD0199C9
:100FC000402205A807F072FD042304934FF4007338
:100FD000159304A84FF440230694229301F0AAFC31
:100FE00010B12F4804F0FEFF15A802F00FF908B168
:100FF0002C48F7E72C4B2D4C9A6D42F000429A6535
:101000009A6D02F000420392039A9A6B42F00042FA
:101010009A639A6B22F000429A63A3F5CA33C4E93B
:101020000100C4E90300C4E90800C4E90A00236020
:1010300084F836004FF48023E06120634FF6FF769A
:101040002046C4E9056301F0EFFA054608B11848E7
:10105000C8E7184B184A9B68C3F84421174A136A1B
:1010600043F00103136223689A6842F001029A6018
:101070009A6842F008029A603146204601F02EFB41
:10108000236808225A605D611A681207FCD508229D
:101090005A600B4B01221A702AB070BDF405002073
:1010A000D89F0008F19F000800100240F8050020BA
:1010B00012A0000800ED00E0B51100080004014096
:1010C0003206002008B504F02DFE064B1B680122F5
:1010D0005A60054B0222C3F88821BDE8084004F09D
:1010E00037BE00BFF805002000E100E070B50446FF
:1010F00004F018FEFFF7FCFE264B05461C60264A4E
:1011000002219160254E3278F2B9611F4FF6F572D7
:10111000914223490FD94FF6FA7290420BD9063407
:101120000122A4B20A701C601E4B01221A70BDE895
:10113000704004F00DBE00220A701B68AB421A4BCF
:1011400028BF01221A70EFE7FFF7BCFF00235A19EE
:1011500092B2A24208BF053403F1010308BFA4B252
:10116000052BF4D1114BAC421B6811D24FF6FA7229
:1011700095420DD84FF0FF325A6100230C4C33706A
:101180002378002BD3D105F011F801232370CEE78B
:101190005C61F2E73406002000E100E03206002046
:1011A000390600203806002030060020F80500200F
:1011B0003A06002070B504F0B5FD2C4B2C4C1A7883
:1011C00032B100221A70236801225A6003F020FC19
:1011D00023681A68D50706D59A68D00703D5012277
:1011E0005A6003F015FC23681A68110724D59A6821
:1011F000120721D508225A601E4B1F4C01221A707B
:1012000023781BB104F0E8FF002323701B4C2378E4
:1012100093B11B4D1B492B7803F0FF06B3B1FFF7C9
:1012200067FE0B68063080B2984209D3FFF768FE6C
:1012300000232B7000232370BDE8704004F088BDAC
:101240000868063880B2FFF751FFF1E70E4D2B78A2
:1012500043B1FFF74DFE0B68984203D3FFF750FEF2
:101260002E70E7E70868FFF741FFE3E7310600204B
:10127000F8050020320600203A060020380600203B
:10128000390600203406002030060020FFF750BE4B
:101290007047704710B50E4CFFF7FBFF02F0D2FC11
:1012A00000F025FDD4F890309B0707D401F03EFAFA
:1012B000D4F8903023F01803C4F89030FFF76EFA9A
:1012C00002F0C0FCFFF7E4FF024B01221A6010BDE0
:1012D000001002403C06002030B591FAA1F391FACB
:1012E000A1F1B3FA83F384685B000325B1FA81F1BD
:1012F00005FA03F3490024EA03038A401343836099
:1013000030BD30B591FAA1F391FAA1F1B3FA83F3AC
:10131000C4685B000325B1FA81F105FA03F34900C3
:1013200024EA03038A401343C36030BD2DE9F84328
:101330000E46411C7CD000F00F023E4B1FFA80F994
:10134000C0F3031053F82250C6F38318FFF70EFDC5
:10135000B8F10F0F06F007070CBF032242462946DB
:101360000446FFF7B9FF032F5DD8DFE807F01D1D26
:10137000021D19F0080FC6F383223FD02B0A93FAFF
:10138000A3F1B1FA81F1406A93FAA3F389004FF017
:101390000F0CB3FA83F30CFA01F19B0020EA010170
:1013A00002FA03F30B43636295FAA5F2B2FA82F2F2
:1013B00023685200032101FA02F223EA020295FA9D
:1013C000A5F3B3FA83F35B0007FA03F3013F13437A
:1013D000012F236005D8636832074CBF2B43AB4312
:1013E0006360C6F30112012A02D0022A18BF00224C
:1013F00029462046BDE8F843FFF783BF95FAA5F1DB
:10140000B1FA81F1036A89000F2000FA01F123EAA1
:10141000010195FAA5F3B3FA83F39B0002FA03F3F3
:101420000B432362C0E704490448D52204F0A2FB21
:10143000BDE8F8837CA0000873A00008E6AB0008B4
:1014400038B5431C0C463BD000F00F021D4BC0F3D7
:10145000031053F82250FFF789FC95FAA5F2B2FA6F
:1014600082F35A0001680323934095FAA5F2B2FA79
:1014700082F20B405200D340013B012B16D8E31EF1
:10148000022B436809D82B43032C436016D1012259
:101490002946BDE83840FFF734BF23EA0503012C95
:1014A0004360F4D0022C07D00022F1E704F0FD03E2
:1014B000012BECD0052CF5D10222E9E7052CF2E74F
:1014C00038BD00BF7CA000080FB407B5064B04AAC6
:1014D0001B6852F8041BD868019204F06EF903B03F
:1014E0005DF804EB04B07047C001002003682F4A88
:1014F000934210B5044636D12D4B1A6C42F480420B
:101500001A641A6C22F480421A641A6E22F4804221
:101510001A66B4F9180040F2C331FFF707FFB4F9B7
:101520001A0040F2C331FFF701FF236A23F400736E
:10153000B3F5807F05D1B4F9240040F2C331FFF741
:10154000F5FE236A23F48073B3F5007F05D1B4F967
:10155000260040F2C331FFF7E9FE6268154B002117
:1015600043F8221010BD144A934211D002F5705274
:101570009342CED10E4BDA6B42F00102DA63DA6BA2
:1015800022F00102DA63DA6D22F00102DA65C0E7C7
:10159000074B9A6B42F400329A639A6B22F4003242
:1015A0009A639A6D22F400329A65B2E700380140DE
:1015B0000010024048040020004400404368842298
:1015C0005343054AD358DA69120744BF08221A6206
:1015D000D869C0F340107047540400204368842247
:1015E0005343034AD358D869C0F3C010704700BFB3
:1015F0005404002043680168842253431F4A10B5F5
:1016000099509C1882686260C368A3600369E360B4
:1016100043692361036AA3610023C4E90833A4F882
:101620005230E361A4F85030A4F85A30A4F858308E
:10163000B0F91A30013313D108236361104B99427A
:1016400009D142F6AA239A42204610D802F093FA12
:10165000204602F0B0FA2046BDE8104002F05DBA24
:10166000B0F9183001330CBF04230C23E5E702F076
:1016700092FA204602F0AFFAEDE700BF54040020D2
:101680000080004070B502682B4B81609A42A6B082
:1016900004460D4622D15022002112A807F006FA76
:1016A0002023119342F6AA239D4222DD002311A894
:1016B0001B9301F0ABFD2046FFF79CFF002839D0BB
:1016C0004FF4806311A81B9301F0A0FD2046FFF7A3
:1016D00091FF78B319482946FFF7F6FE2046FFF739
:1016E00089FF38B31648294626B0BDE87040FFF799
:1016F000EBBE144ED6F8901011F002010BD140222F
:1017000001A807F0D3F9042300936846012302934C
:101710000A9301F00FF9D6F890309B07C6D54FF425
:10172000406311A81B9301F071FD2046FFF762FF93
:101730000028BBD126B070BD00800040BCA00008CE
:1017400007A1000800100240094B98420BD0A3F5F6
:101750007443984209D003F57053984214BF4FF078
:10176000FF3002207047002070470120704700BF03
:10177000003801402DE9FF470E4604464B493046EC
:10178000154603F073F94A498246284603F06EF97C
:101790000146504603F046F944490746304603F0F7
:1017A0007BF943498146284603F076F9022E8046AC
:1017B0000AD00F2D08D03D49022003F057F95045BB
:1017C0000CD13C4804F00EFC4FF0010A791C276054
:1017D00007D139493948412204F0CCF94FF0000AC9
:1017E000F4E7374B9F4214D103F558431A6E42F485
:1017F00080421A661B6E03F480430193019B3846B6
:10180000FFF7A2FF0028606021DA2B492D48A022B3
:10181000E2E72D4B9F420BD103F5E6339A6D42F47C
:1018200000329A659B6D03F400330293029BE6E756
:10183000264B9F42E3D103F5C833DA6D42F0010233
:10184000DA65DB6D03F001030393039BD7E7494699
:101850003046FFF76BFD01213046FFF7F1FD4146B1
:101860002846FFF763FD28460121FFF7E9FD002325
:101870004FF4E132C4E90223C4E90433236226832E
:1018800065832046FFF7B6FEBAF1000F0AD0104B71
:10189000104801221A6021464C2204B0BDE8F047EE
:1018A00007F0F6B804B0BDE8F08700BF549E00080A
:1018B000249E000831A10008A9A10008B6A10008D3
:1018C00000380140D2A100080044004000800040E0
:1018D0008C060020400600200E4B186810F0010016
:1018E00018BFD8690C4B1A681CBF80F04000C0F3C9
:1018F0008010D10704D5DB6913F0400F08BF012029
:10190000064B1A68D20704D5DB6913F0400F08BFF5
:101910000120704700380140004400400080004032
:101920004FF08042516A536A5B1A8342FBD370477F
:1019300010B5002486B01422214601A8009407F0B7
:10194000B5F8694601A801F0B9FB0F23009901938E
:1019500001A8CDE902440594049401F095FA10B170
:10196000024804F03FFB06B010BD00BFE4A1000830
:1019700000B593B00021442201A807F097F8104B5E
:101980009A6D42F080529A659B6D03F080530093EC
:1019900001A8009B01F030FB1023019301210023DB
:1019A000B02201A8CDE9071309920B9300F0C2FF02
:1019B00010B1044804F016FB13B05DF804FB00BF3F
:1019C000001002400CA2000808B504F0ABF9074B68
:1019D000186810F480404FF0010118BF4FF48040A8
:1019E00000F0ACFEBDE8084004F0B2B90070004061
:1019F00073B5FFF771FF002839D11E4C04F092F93E
:101A000000F0F4F81C4AA56D166815F0805506F430
:101A1000804608D1A36D43F08053A365A36D03F006
:101A200080530193019B0EB100F0B8FE012000F03D
:101A3000D5FE0EB100F0AAFE1DB9A36D23F08053B0
:101A4000A3650E4C00232360FFF792FFFFF770FFA2
:101A5000FEF7A4FE4FF4FA70FFF762FF00F0DCF827
:101A60000123236002B0BDE8704004F071B902B0F8
:101A700070BD00BF00100240007000403C06002016
:101A8000014B186801F010BD90060020014B18684A
:101A900001F00ABD94060020074A4FF0804313600E
:101AA0001A69910707D5DA68920704D56FF0020228
:101AB0001A6103F00FBA704798060020004870477B
:101AC00034A2000830B589B001A903A801F0F6FAE4
:101AD00001F06EFA1F4B01909A6D1F4C42F001020B
:101AE0009A659A6D02F001020292029A9A6B42F094
:101AF00001029A639A6B22F001029A63069A4FF0F0
:101B0000804323604FF0FF33E360144BFAB9B0FB1E
:101B1000F3F00138002560600F482561C4E90555E0
:101B2000A56001F08BFD0E4B0E4A9B68C3F8B020F8
:101B30000D4B4FF080521A600748294601F0BCFD5A
:101B40002268D36823F00203D36009B030BD40009F
:101B5000DDE700BF001002409806002040420F0061
:101B600000ED00E0991A000800E100E00448026876
:101B7000D36823F00203D360002101F09DBD00BFB4
:101B8000980600204FF08043586A7047054B1B6849
:101B90006FF0020258631A61DA6842F00202DA60FA
:101BA000704700BF98060020064B1B686FF00202CA
:101BB0001A615A6942F002025A61DA6842F002027E
:101BC000DA60704798060020034B1A68D36823F048
:101BD0000203D360704700BF98060020024B1B68C9
:101BE0006FF002021A61704798060020064B074A00
:101BF0001B68596A11605A6B054B1A604FF080439D
:101C0000DA68044B1A60704798060020E806002046
:101C1000E4060020EC060020064B074A1B68126809
:101C20005A62064A12685A63054B1A684FF080439D
:101C3000DA60704798060020E8060020E4060020DD
:101C4000EC060020014B186800F08ABCF00600206A
:101C5000014B586800F084BCF0060020014B9868E6
:101C600000F07EBCF0060020014BD86800F078BC84
:101C7000F0060020014B186900F072BCF00600204D
:101C8000014B586900F06CBCF0060020014B9869CC
:101C900000F066BCF0060020014BD86900F060BC83
:101CA000F0060020014B186A00F05ABCF006002034
:101CB000014B586A00F054BCF0060020014B986AB2
:101CC00000F04EBCF0060020014BD86A00F048BC82
:101CD000F0060020014B186B00F042BCF00600201B
:101CE000014B586B00F03CBCF0060020704710B56B
:101CF000032000F0FDFB0F20FFF7C2F8044618B9DF
:101D0000FFF7F4FF204610BD0124FBE730B5CC0DF2
:101D100004F004041430C1F30451235807258D4006
:101D200023EA050302FA01F10B43235030BD80681A
:101D3000C0F380007047704737B500230193044615
:101D4000002800F0BF80456D25B9FFF7F4FFA565B9
:101D500084F85050206883689B0041BF836823F05B
:101D6000204323F03F0383608368DD0040F18A80D5
:101D70008368D90000F19D80636D43F010036365B3
:101D8000A36D43F00103A3650121FFF7D0FF636D4D
:101D900003F010030343636D40F0918023F48173DB
:101DA00043F00203206863658368DA070AD4464B70
:101DB0009B68DB0706D4454A6568936823F47C1367
:101DC0002B439360E568636B94F820202B43A56850
:101DD0002B43657E012A43EA453343EA024302BFAF
:101DE000626A02F1FF3243EA4243A26A22B1E56A23
:101DF00002F470722A431343C568354A2A401343DC
:101E0000C360FFF794FF23689A6802F00802024358
:101E100020D1D86894F83020257E520020F48040EC
:101E200042EA853220F002000243DA6094F838205A
:101E3000012A40D1D4E90F25186920F4FF6020F071
:101E400004002A430243606C0243A06C024342F048
:101E500001021A612269012A05BF186BE2691A6B37
:101E600002F1FF3206BF20F00F00024322F00F0202
:101E70001A63636D23F0030343F0010363650846AF
:101E800003B030BD8368134A23F0104323F03F03AF
:101E900043F080538360104B1B68B3FBF2F30133B4
:101EA0005B000193019B002B3FF462AF019B013B60
:101EB000F7E7002169E71A6922F00102C9E743F058
:101EC000100363650121DAE70000045000030450A9
:101ED00007C0F0FF400D030008000020F8B5456979
:101EE000082D04460E460AD00368DB68DD0705D5D9
:101EF000436D43F0200343650120F8BD0425FEF740
:101F0000C5FF074623681A682A421DD0626D42F455
:101F100000726265DA6812F4406F0FD1627E6AB9AE
:101F20001A6811070AD5626D22F480726265626DCB
:101F3000D2045EBF626D42F001026265082DD8686E
:101F400017D11D600020D8E7701CDCD0FEF79EFF83
:101F5000C01BB04201D8002ED4D123681B682B408F
:101F6000D0D1626D84F8503042F0040262650320E3
:101F7000C3E710F48040E5D10C221A60BDE7036886
:101F8000186C7047F7B50023019390F85030012B7F
:101F900005460C4600F08F81012380F85030006820
:101FA000FFF7C5FE002840F080814B68052B09D85B
:101FB000023B032B00F28C80DFE803F0028385876D
:101FC0000C236360626828682368910900F1300778
:101FD00001F00C0102F01F02CE594FF01F0CC3F3A9
:101FE000846393400CFA02F226EA02021343CB51B7
:101FF000FFF79DFE2E68B36803F0080303431DD16D
:102000003046A2682168FFF781FE266929682368A7
:10201000C868042E01F160025CD0C0F3C101480021
:10202000616952F826708140A44803F0F8433840B3
:102030000343194341F0004142F8261028688368A1
:10204000D90733D4E66823689D4AD0F8B01006F06B
:10205000180CC3F3120722FA0CF21A4021EA070106
:102060000A43C0F8B020974A96421FD1002F40F093
:1020700086809A0E013202F01F0601219206092E77
:1020800002F0F84201FA06F100F2A5800A43002F9F
:1020900040F091809B0E013303F01F0303EB4303D9
:1020A0001B0542EA0301A268FFF730FE2168864B58
:1020B000194240F0AB800020002385F8503003B077
:1020C000F0BD12237DE718237BE74FF4807378E798
:1020D000062376E7086E086EC3F31206C0F3846029
:1020E000002E38D1C3F38463984202BF0B6E23F0F5
:1020F00000430B664B6E2368486EC3F31206C0F3B1
:1021000084606EBBC3F38463984202BF4B6E23F0BE
:1021100000434B66936823689168C3F31200C1F3D0
:10212000846110BBC3F38463994202BF936823F0B8
:1021300000439360D3682368D168C3F31200C1F3EE
:102140008461B8B9C3F38463994202BFD36823F0B2
:102150000043D36072E793FAA3F3B3FA83F3C3E7C0
:1021600093FAA3F3B3FA83F3CEE793FAA3F3B3FAA4
:1021700083F3D9E793FAA3F3B3FA83F3E4E793FA8B
:10218000A3F636B1B6FA86F2511C01F01F010929F7
:1021900016D893FAA3F293FAA3F1B2FA82F2B1FA43
:1021A00081F10131013201F01F069206012102F096
:1021B000F842B1406AE793FAA3F3B3FA83F36AE70C
:1021C000B6FA86F601320136920606F01F060121A4
:1021D00002F0F842B1400A435FB99E0E013606F0A4
:1021E0001F0606EB46011E39090541F00071114337
:1021F00059E793FAA3F1B1FA81F1013101F01F031C
:102200006FF01D06032111FB0361EDE72F4B304AF0
:102210009868914200F0E0741ED102023FF54BAF86
:1022200029682C4A91427FF446AF9A6822F0E07206
:10223000224342F400029A60274B284A1B68B3FBF2
:10224000F2F20C2302FB03330193019B002B3FF4BA
:1022500032AF019B013BF7E7214A914211D110F0C7
:1022600080707FF428AF2968A2F1F74291427FF491
:1022700022AF9A6822F0E072224342F080729A60A4
:102280001AE7184A91427FF416AF10F480007FF4E9
:1022900012AF29680F4A91427FF40DAF9A6822F07D
:1022A000E072224342F48002E9E76A6D42F02002C4
:1022B0006A65184600E7022001E700BF00F0FF034F
:1022C000FFFF070000007F4000000880000304506B
:1022D000000052C70000045008000020400D030019
:1022E000000084CB010000800268936870B504464A
:1022F000D80701D5002070BD9168164B194209D04E
:10230000636D43F010036365A36D43F00103A365A0
:102310000120F0E79368104D2B4043F001039360D8
:10232000FEF7B4FD064622681368DB07E2D4936823
:10233000D9075FBF93682B4043F001039360FEF71A
:10234000A5FD801B0228EED923681B68DA07EAD4B2
:10235000D6E700BF3F000080C0FFFF7F38B50446CE
:102360000068FFF7E4FC0546002836D194F85030A9
:10237000012B32D0012384F850302046FFF7B4FF00
:1023800040BB636D23F4706323F0010343F4807357
:102390006365636DDA0448BFA36D226852BFA06510
:1023A00023F00603A3651C231360002384F8503038
:1023B000D3689B0141BF636D23F4405343F48053C2
:1023C0006365936823F0004323F03F0343F0040365
:1023D000936038BD84F85050FBE70220F9E70268AB
:1023E00038B5936891680446C80701D4002038BD09
:1023F0009907FBD4936803F00D03012B19D193685F
:1024000023F0004323F03F0343F0020393600323D0
:102410001360FEF73BFD054623689B68DB07E5D5A7
:10242000FEF734FD401B0228F6D923689B68DA07C3
:10243000F2D5636D43F010036365A36D43F00103B0
:10244000A3650120D3E773B50023019390F85030C2
:10245000012B04460D463ED0012380F85030FFF793
:10246000BEFF002833D1626D266822F4885222F024
:10247000020242F002026265B36823F0404323F097
:102480003F0305F080452B4343F00043B360B3683E
:10249000002B12DA019B01330193019BB3F5912FBD
:1024A000F5D3636D23F0120343F01003636500233B
:1024B00084F85030012002B070BD636D23F0030337
:1024C00043F001036365002384F85030F3E7636D44
:1024D00043F01003F6E70220EDE70368D3F8B400F9
:1024E0000840090B01F0100100F07F10C840704750
:1024F0000749CA6822F4E0620302120403F4E063AD
:10250000120C134343F0BF6343F40033CB607047B6
:1025100000ED00E010B590F82520022A03D0042237
:10252000C263012010BD0268836B116821F00E01A7
:102530001160116821F001011160D0E91042012100
:1025400002F01C0201FA02F26260002480F82510F9
:1025500080F8244013B198472046E3E71846E1E7A6
:10256000016C426C036870B402F01C020E681D68B6
:102570000424944034420ED015F0040F0BD01A6896
:1025800092065EBF1A6822F004021A60036B4C6068
:1025900073B370BC184702249440344212D015F033
:1025A000020F0FD01A68950606D41A6822F00A02A4
:1025B0001A60012380F8253000234C6080F8243015
:1025C000C36AE5E708249440344211D02C070FD5A4
:1025D0001C6824F00E041C60012303FA02F24A6016
:1025E000C36380F82530002380F82430436BCFE7A5
:1025F00070BC704710B50A4B44F620621B68B3FBF1
:10260000F2F34FF47A725343026800201468013BDE
:1026100008BF032031EA040401D0002BF6D110BD1D
:102620000800002070470000F8B5044600284FD08D
:1026300090F8363003F0FF021BB980F83520FFF721
:10264000F1FF65682068A66A022384F83630012D00
:10265000C16802D0B6F5000F01D121F01E016269F8
:102660001C4F4FF6FF739A421CBF21F4604121F0CA
:10267000C0010F40A16845EA06030B43216A0B43E2
:10268000616A0B433B43E5B9E169256929430B4383
:10269000B6F5000F17D04FF6FF718A4204D0A1693A
:1026A0000A43E1690A4313430B4AC3609042E36A59
:1026B00004BF226B13430362012384F836300020E9
:1026C000F8BD012DE4D1D4E9031529430B43E2E71A
:1026D0000120F5E7FEF119FF007C0040022310B550
:1026E00080F83630D0E90032012A044607D0826AE9
:1026F000B2F5000F02BFDA6822F46062DA601A698C
:1027000042F001021A6110225A6020469961114676
:10271000FFF770FF032808D02268136943F0040311
:102720001361012384F83630002010BD024A13687B
:1027300043F4807313607047007000400D4B10B578
:102740005B690C4628B99A0507D500F027F820B137
:1027500010BD9B0501D400F019F8074A1369012C3C
:1027600023F00403136101D130BFF1E740BF20BF64
:1027700020BFEDE70070004000ED00E0024B18685C
:1027800000F4C060704700BF00700040024A136848
:1027900043F4804313607047007000400C4A136894
:1027A00023F4804313600B4B1B6832214B430A49CF
:1027B000B3FBF1F301335169890500D533B953698E
:1027C00013F4007F14BF032000207047013BF2E7A1
:1027D000007000400800002040420F000B4A1368C0
:1027E00023F0070343F002031360094B1A69012821
:1027F00042F004021A6105D130BF1A6922F00402C6
:102800001A61704740BF20BF20BFF6E7007000404C
:1028100000ED00E037B51E4DAB6DDA00044618D56B
:10282000FFF7ACFFB0F5007F23D1802C29D9A02C75
:102830008CBF02200120174A136823F007030343CB
:102840001360136803F00703181A18BF012003B0C0
:1028500030BDAB6D43F08053AB65AB6D03F080537F
:102860000193019BFFF78AFFAB6D23F08053AB65AB
:10287000D8E7802C07D808D0A4F1700358425841FB
:10288000D9E70020D7E70320D5E70220D3E700BF30
:102890000010024000200240224B9A68D96812F0D2
:1028A0000C0205D00C2A15D101F00301012918D121
:1028B00019681D48090755BFD3F894101968C1F36A
:1028C0000321C1F3031150F821004AB30C2A09D0A7
:1028D00000207047042A22D0082A144818BF00207C
:1028E00070470020DA6802F00302022A15D00F496F
:1028F000032A08BF0846D968DA68C2F306224243B1
:10290000D868C0F34160C1F30211013001314000C9
:10291000B2FBF1F2B2FBF0F070470548EBE7044878
:10292000704700BF0010024064A2000800127A0045
:102930000024F4002DE9F743054608B9012047E0DB
:10294000944C0368A668E768DB0606F00C0607F0FF
:10295000030775D51EB10C2E54D1012F52D1236817
:10296000980702D5AB69002BE8D02368286A1907BD
:1029700056BFD4F8943023681B0903F0F003984243
:1029800029D9FFF747FF0028D8D1236843F008036F
:10299000236023682A6A23F0F003134323606368EB
:1029A000EA6923F47F4343EA02236360FFF774FF7D
:1029B000A368794AC3F30313D35C03F01F03D84021
:1029C000764B1860764B1868FEF75AFA002837D015
:1029D00003B0BDE8F083236843F008032360236855
:1029E00023F0F003034323606368EA6923F47F4321
:1029F00043EA02236360002ED8D1FFF70BFF0028C3
:102A0000D4D09BE7AB69002B3AD0236843F0010395
:102A10002360FEF73BFA804623689A0728D523688F
:102A200043F00803236023682A6A23F0F00313436A
:102A300023606368EA6923F47F4343EA0223636007
:102A40002B68D8072DD42B6899076BD42B681807EF
:102A500000F1A8802B68590700F1CE802B689806FA
:102A600000F13781AB6A002B40F05D810020AFE7B9
:102A7000FEF70CFAA0EB08000228CDD90320A7E747
:102A8000236823F001032360FEF700FA80462368E1
:102A90009B07D5D5FEF7FAF9A0EB08000228F6D976
:102AA000ECE7082E03D00C2E08D1032F06D12368A3
:102AB0009A03C8D56B68002BC5D13FE76B68B3F5A7
:102AC000803F10D1236843F480332360FEF7DEF9A2
:102AD000804623689B03B6D4FEF7D8F9A0EB080024
:102AE0006428F6D9CAE7B3F5A02F04D1236843F4CC
:102AF00080232360E6E7226822F480322260226885
:102B000022F480222260002BE0D1FEF7BFF980463C
:102B10002368980397D5FEF7B9F9A0EB080064285D
:102B2000F6D9ABE7042E03D00C2E10D1022F0ED114
:102B30002368590503D5EB68002B3FF4FFAE6368AB
:102B40002A6923F0F85343EA026363607EE7EB6887
:102B50007BB1236843F480732360FEF797F907463F
:102B600023685A05EBD4FEF791F9C01B0228F7D968
:102B700084E7236823F480732360FEF787F9074610
:102B800023685B057FF562AFFEF780F9C01B022862
:102B9000F6D973E7001002404CA20008080000209C
:102BA000040000206B699BB1D4F8943043F001031A
:102BB000C4F89430FEF76AF90746D4F894309A07BF
:102BC0003FF548AFFEF762F9C01B0228F5D955E77B
:102BD000D4F8943023F00103C4F89430FEF756F98A
:102BE0000746D4F894309B077FF534AFFEF74EF9D3
:102BF000C01B0228F5D941E7A36DDF0029D4A36DDE
:102C000043F08053A365A36D03F080530193019BB0
:102C10004FF001089A4F3B68D8051DD5AB68012BD2
:102C20002BD1D4F8903043F00103C4F89030FEF774
:102C30002DF941F288390746D4F890309A0742D5E9
:102C4000B8F1000F3FF40AAFA36D23F08053A365E2
:102C500004E74FF00008DDE73B6843F480733B6016
:102C6000FEF714F981463B68D905D7D4FEF70EF973
:102C7000A0EB09000228F6D900E7052B06D1D4F80D
:102C8000903043F00403C4F89030CAE7D4F89020A1
:102C900022F00102C4F89020D4F8902022F004021F
:102CA000C4F89020002BC2D1FEF7F0F841F2883929
:102CB0000746D4F890309B07C2D5FEF7E7F8C01B53
:102CC0004845F6D9DAE6FEF7E1F8C01B4845B3D926
:102CD000D4E66B6A9BB1D4F8983043F00103C4F892
:102CE0009830FEF7D3F80746D4F8983099073FF5A7
:102CF000B9AEFEF7CBF8C01B0228F5D9BEE6D4F872
:102D0000983023F00103C4F89830FEF7BFF8074667
:102D1000D4F898309A077FF5A5AEFEF7B7F8C01B38
:102D20000228F5D9AAE6022B40F08880E368EA6A17
:102D300003F00301914222D1296B03F070020139A3
:102D4000B2EB011F1BD1696B03F4FE42B2EB012F02
:102D500015D1A96B03F07842B2EBC16F0FD1EA6BCA
:102D6000520803F4C001013AB1EB425F07D12A6C6B
:102D7000520803F0C063013AB3EB426F45D00C2E0A
:102D80003FF4DCAD23685B013FF5D8AD236823F049
:102D900080732360FEF77AF8064623689F012ED4DD
:102DA000E268384B1340EA6A13436A6B43EA022332
:102DB000AA6B43EAC2632A6B013A43EA0213EA6B45
:102DC0005208013A43EA42532A6C5208013A43EA54
:102DD0004263E360236843F080732360E36843F059
:102DE0008073E360FEF752F8054623689E013FF5C5
:102DF0003DAEFEF74BF8401B0228F6D93EE6FEF743
:102E000045F8801B0228C8D938E6236898013FF5A9
:102E10002DAE236843F080732360E36843F0807332
:102E2000E360FEF733F80546236899013FF51EAECF
:102E3000FEF72CF8401B0228F6D91FE60C2E3FF4B3
:102E40007DAD236823F08073236023681A015EBF81
:102E5000E36823F00303E360E36823F0887323F45B
:102E60008033E360FEF712F8054623689B017FF587
:102E7000FDADFEF70BF8401B0228F6D9FEE500BFBA
:102E8000007000408C809D012DE9F0410D46044604
:102E900010B90120BDE8F081404A136803F0070330
:102EA0008B422AD32368D90732D421688A075BD49E
:102EB0003A4A136803F00703AB425DD811F0040FE0
:102EC000374D64D10B0706D5AB68226923F46053F4
:102ED00043EAC203AB60FFF7DFFCAB68314AC3F3E0
:102EE0000313BDE8F041D35C03F01F03D8402E4B21
:102EF00018602E4B1868FDF7C3BF136823F0070353
:102F00000B431360136803F007038B42C1D1C9E779
:102F10006268234E032A33681AD113F0007FB8D0B9
:102F2000B36823F003031343B360FDF7AFFF41F22F
:102F300088380746B368626803F00C03B3EB820F6E
:102F4000B3D0FDF7A3FFC01B4045F3D90320A1E791
:102F5000022A02D113F4003FE1E712B913F0020F85
:102F6000DDE713F4806FDAE70D4AA068936823F079
:102F7000F003034393609BE7136823F007032B439D
:102F80001360136803F00703AB4282D196E7AB6886
:102F9000E26823F4E0631343AB6093E70020024050
:102FA000001002404CA2000808000020040000208D
:102FB000054B064A9B68C3F30223D35C044A10689E
:102FC00003F01F03D8407047001002405CA20008C5
:102FD00008000020054B064A9B68C3F3C223D35C5C
:102FE000044A106803F01F03D840704700100240E5
:102FF0005CA20008080000203F2303602E4B1A68E3
:1030000051034AD54FF4A02242601A6802F001022F
:1030100082615A68C2F30722C2611A6802F0F002A4
:1030200002621A6802F48072C2605A68C2F30462D3
:103030000261D3F89020520736D505228260D3F87A
:10304000942002F001024261D3F8982002F00102BC
:1030500042621A6812F0807F14BF0222012282624B
:10306000DA6802F00302C262DA68C2F302120132C5
:103070000263DA68C2F306224263DA68C2F341529D
:1030800001325200C263DA68C2F341620132520077
:103090000264DB68DB0E836370471A6812F48032C7
:1030A00018BF4FF48032AFE7D3F8902012F001023E
:1030B00018BF0122C2E700BF001002400F230360C7
:1030C0000B4B9A6802F0030242609A6802F0F00229
:1030D00082609A6802F4E062C2609B68DB0803F4D5
:1030E000E0630361034B1B6803F007030B60704749
:1030F0000010024000200240F8B5434C0368E2682B
:10310000054690070E4639D0E26802F003029A4263
:1031100077D1002A75D0E3686A68C3F302130133DC
:1031200093426ED1236823F080632360FDF7AEFEE7
:10313000074623681A0140D4AB681802002E43D01A
:10314000012E4CD12A6921695208531E21F4C00274
:1031500022F4FE42024342EA43522261236843F0D2
:1031600080632360FDF792FE064623681B0142D56B
:103170002369AA6913432361002024E0022B11D0A4
:10318000032B13D0012B3CD1226812F0020F38D050
:10319000E0686A6820F07300013A184340EA0210C0
:1031A000E060BFE7226812F4806FF0E722689103C5
:1031B000EED4226812F4802FE9E7FDF767FEC01B0A
:1031C0000228B6D90320F8BD2269EB6840EAC36340
:1031D00022F0784020F4FE4003432361BEE76B6990
:1031E00022695B08591E22F0C06323F4FE430343A7
:1031F00043EA4163F1E7FDF749FE801B0228B4D999
:10320000E0E70120DFE700BF001002402DE9F743AF
:10321000056815F40065044609D0C16BB1F5000FCF
:1032200035D0B1F5400F37D0002940D001252368B3
:103230009E0351D5954EB36DD8003FD4B36D43F086
:103240008053B365B36D03F080530193019B012755
:10325000DFF83C82D8F8003043F48073C8F80030BF
:10326000FDF714FE8146D8F80030D90528D575BB86
:10327000D6F8903013F4407340F0C780D6F8903001
:10328000226D23F440731343C6F890301FE07F4A49
:10329000D36843F48033D3607C4AE16BD2F8883042
:1032A00023F440030B43C2F888300025BFE7043005
:1032B000FFF722FF05460028B9D1EDE70027C7E751
:1032C000FDF7E4FDA0EB09000228CCD903251FB1CE
:1032D000B36D23F08053B3652368DF0708D56B49CE
:1032E000206AD1F8882022F003020243C1F8882026
:1032F0009E0708D56549606AD1F8882022F00C0243
:103300000243C1F88820980608D56049A06AD1F820
:10331000882022F440620243C1F88820990508D52C
:103320005A49606BD1F8882022F440220243C1F848
:1033300088205A0508D55549A06BD1F8882022F479
:1033400040120243C1F888205F0608D54F49E06A61
:10335000D1F8882022F440520243C1F88820DE05CB
:1033600008D54A49206BD1F8882022F44032024324
:10337000C1F8882098040FD5444A216CD2F88830CF
:1033800023F040630B43B1F1006FC2F8883066D17F
:10339000D36843F48013D360236859030FD53B4AA5
:1033A000616CD2F8883023F040630B43B1F1006FB9
:1033B000C2F888305ED1D36843F48013D3602368A9
:1033C0005A0412D53149A26CD1F8883023F0405309
:1033D0001343B2F1805FC1F8883006D10221201D6D
:1033E000FFF78AFE002818BF054623681B0408D58E
:1033F000264AE16CD2F8883023F080430B43C2F8B0
:103400008830284603B0BDE8F083226D93423FF434
:1034100035AFD6F89020D6F8903043F48033C6F814
:103420009030D6F8903022F4407123F48033D207E4
:10343000C6F89030C6F890107FF520AFFDF726FD56
:1034400041F288398046D6F890309B073FF516AF99
:10345000FDF71CFDA0EB08004845F4D936E7B1F1B3
:10346000806F99D10121201DFFF746FE002818BF6B
:10347000054691E7B1F1806FA1D10121201DFFF731
:103480003BFE002818BF054699E700BF0010024028
:1034900000700040024A136843F004031360704751
:1034A0000010024070470000F0B503685D689A683C
:1034B000560685B004464FEA9211C2F3801708D42D
:1034C000D60706D56E0604D5C36C05B0BDE8F0403E
:1034D0001847960704D5280602D5236D2046F4E741
:1034E00041EA5211C2F3002001F00101560951EAEC
:1034F000000257D0AA0655D57FB194F85D20032A63
:103500004FF0000148D0226E42F004022266009182
:10351000DA6800929A680092009AF1070CD5226E40
:1035200042F001022266002202929A6802921A6810
:1035300022F040021A60029A40B1226E42F0080264
:103540002266002203929A680392039A226E4AB37B
:103550005A6822F0E0025A60012284F85D20AA072E
:1035600022D05A68A06D22F003025A6040B1104B7D
:103570008363FEF7CFFF18B1236E43F04003236649
:10358000606D78B10A4B8363FEF7C4FF50B1236EC0
:1035900043F04003236605E00191DA6801929B68DD
:1035A0000193019B05B0F0BD2046FFF77BFFF9E7D3
:1035B000B535000808B5806A0023A0F84630C387F7
:1035C000FFF770FF08BD70471A4A0368904210B5B4
:1035D00002D0B0F1804F09D14C6823F070039042C3
:1035E00043EA040309D0B0F1804F06D0124A90425A
:1035F00003D002F58062904203D1CA6823F440737D
:1036000013434A6923F08003134303608B68C3624A
:103610000B688362074B984207D003F5A05398428A
:1036200003D003F58063984201D10B690363012342
:10363000436110BD002C01400040014010B504461C
:1036400050B390F83D3003F0FF021BB980F83C20E6
:10365000FFF7B9FF0223206884F83D30211DFFF7F2
:10366000B3FF012384F84830002084F83E3084F80A
:103670003F3084F8403084F8413084F8423084F898
:10368000433084F8443084F8453084F8463084F878
:10369000473084F83D3010BD0120FCE7036A01F09B
:1036A0001F0110B501248C4023EA04030362036A5E
:1036B0008A401A43026210BD10B5044629B990F839
:1036C0003E30012B27D0012043E0042907D190F898
:1036D0003F30012BF7D1022380F83F301EE008294C
:1036E0000DD190F84030013B18BF0123002BEAD1E7
:1036F00008294FF002032DD184F840300EE00C2948
:1037000002D190F84130EEE710290CBF90F842301A
:1037100090F84330E7E7022380F83E30206801222A
:10372000FFF7BCFF23681A498B4206D0194A93421F
:1037300003D002F58062934227D15A6C8B4242F447
:1037400000425A6412D19968134A0A40062A14D1D9
:10375000002010BD0C2902D184F84130DEE7102989
:103760000CBF84F8423084F84330D7E7B3F1804F80
:10377000E9D0084A934203D1E5E7B2F5803FE7D0AC
:103780001A6842F001021A60E2E7B3F1804FF2E7F3
:10379000002C01400040014007000100704700007C
:1037A00070B5044603682169A2681D68C0690A43B0
:1037B00061690A436949024329400A431A605A6809
:1037C000E16822F440520A435A60654AA169934273
:1037D0001CBF226A11439A6822F430620A439A603D
:1037E000604A934216D1604BD3F8883003F003034C
:1037F000013B022B00F2AC805C4AD35CB0F5004F79
:1038000071D1082B20D8DFE803F04FA66C1F691F89
:103810001F1F5300564A934206D1534B554AD3F8C3
:10382000883003F00C03E8E74D4A93420CD14E4B2D
:10383000D3F8883003F44063B3F5006F17D005D890
:1038400053B1B3F5806F0FD0012009E0B3F5406F9D
:10385000FAD14FF400400BE0FFF7AAFB40B900207B
:103860000023C4E9193370BDFFF716F8F6E74248A4
:10387000626802EB42038342E6D8B0EB023FE3D832
:10388000510800258C464FF480762946E0FB06C19E
:103890002B46604606F014F8384BA0F540729A4269
:1038A000D2D82368D860DAE7FFF782FB0028D6D0A9
:1038B0006268530803EB4000B0FBF2F083B2A3F15F
:1038C00010014FF6EF729142BED820F00F0022682F
:1038D00080B2C3F342031843D060C0E7FEF7DCFFB9
:1038E000E4E72548E4E7082BAED801A252F823F01C
:1038F00037390008413900084D39000849380008B7
:103900004739000849380008493800084938000894
:10391000153900084FF40040626800EB5203B3FB16
:10392000F2F39BB2A3F110014FF6EF7291428BD8E4
:103930002268D36093E7FFF73BFB00288FD0EBE7CB
:10394000FFF748FBF9E7FEF7A7FFF6E70A48E3E7CA
:10395000B0F5004FF4D1FFF73DFBA7E7F369FFEFA8
:103960000080004000380140001002403CA20008E6
:10397000004400403FA200080024F400FFFC0F00B8
:10398000436ADA0710B506D50168846A4A6822F4EA
:10399000003222434A609C0706D50168C46A4A681F
:1039A00022F4803222434A60590706D50168046B2D
:1039B0004A6822F4802222434A601A0706D5016829
:1039C000446B4A6822F4004222434A60DC0606D572
:1039D0000168846B8A6822F4805222438A609906C7
:1039E00006D50168C46B8A6822F4005222438A60BB
:1039F0005A060FD50168046C4A6822F480122243EB
:103A0000B4F5801F4A6005D14A68446C22F4C002B4
:103A100022434A601B0606D50268816C536823F472
:103A200000230B43536010BD2DE9F041DDF81880F1
:103A300004460E4615461F462268D36936EA03033C
:103A40000CBF01230023AB4201D000201AE0B8F1E3
:103A5000FF3FF2D0FDF71AFAC01B4045206803680B
:103A600002D8B8F1000F0FD123F4D073036083683C
:103A700023F0010383602023A367E367002384F816
:103A800074300320BDE8F0815A07D5D5C3691B0502
:103A9000D2D54FF400630362036823F4D07303604C
:103AA000836823F0010383602023A367E367C4F8DE
:103AB0008030E3E730B50446002585B0C0F880507B
:103AC000FDF7E4F9226812681107034615D422684D
:103AD0001268520709D56FF07E4200924FF48001C0
:103AE00000222046FFF7A0FFA0B920230020A367F3
:103AF00084F87400E36720660DE06FF07E42009268
:103B000003902A464FF400112046FFF78DFF039BD8
:103B10000028DCD0032005B030BD10B5044640B30A
:103B2000836F1BB980F87430FFF738FE22682423B6
:103B3000A367136823F0010313602046FFF730FEEC
:103B4000012816D0636A13B12046FFF719FF2368D6
:103B50005A6822F490425A609A6822F02A029A60C7
:103B60001A6842F0010220461A60BDE81040FFF7D3
:103B7000A1BF012010BD90F87430012B1FBF026857
:103B8000936843F4000393601DBF002380F87430F2
:103B900018460220704790F87430012B1FBF02684E
:103BA000936823F4000393601DBF002380F87430F2
:103BB00018460220704790F87430012B1FBF02682E
:103BC000136843F0020313601DBF002380F87430B4
:103BD00018460220704790F87430012B1FBF02680E
:103BE000136823F0020313601DBF002380F87430B4
:103BF00018460220704700000F4B104A9A60D3F815
:103C0000882042F47002C3F888200D4B1A68002106
:103C100042F001021A6099601A6822F0A85222F458
:103C200010221A604FF48052DA601A6822F480225F
:103C30001A609961704700BF00ED00E000000008C5
:103C400000100240234A244913681B0755BFD2F8CD
:103C500094301368C3F30323C3F3031310B551F86F
:103C6000230091681D4C01F00C0108290ED00C298D
:103C70000ED004292CD11A4B23609368194AC3F340
:103C80000313D25C2368D340236010BD164BF3E7C7
:103C9000D168D36801F00301C3F30213022903F1D1
:103CA000010304D0032911D0B0FBF3F302E00C4967
:103CB000B1FBF3F3D168D068C1F306214B43C0F3E5
:103CC000416101314900B3FBF1F3D5E70649EFE764
:103CD0002060D2E70010024064A200080800002023
:103CE0000024F4004CA2000800127A0038B5054602
:103CF000044655F8043B9B6898472846FCF78AFF22
:103D000023680546DB6820469847284638BD0000F2
:103D100013B5084B03600446C2660191FCF728FC0A
:103D20000199201DFCF744FD2046FCF72BFC2046A2
:103D300002B010BD6C9D0008036801221B690021C0
:103D40001847036800221B69114618476FF01500D9
:103D5000704780F834130020704780F8501200201C
:103D6000704790F83403704790F850027047002075
:103D70007047012070476FF01C0070470A4B10B568
:103D8000036048330446C0F8E430D0F8380310B17B
:103D900003685B68984704F5407002F073FD2046A5
:103DA00000F008FC204610BD6CA30008A0F1E40060
:103DB000FFF7E4BF10B50446FFF7E0FF20464FF4DD
:103DC0004F7102F08CFC204610BDA0F1E400FFF71B
:103DD000F1BF10B4826801685410034601EB620021
:103DE000D20748BF0A595B685DF8044B48BFD358F7
:103DF00018476FF01C007047002070470120704783
:103E0000D0F8380308B520B100F0D6FA003818BF52
:103E1000012008BD30B5002587B0CDE9005502ABC3
:103E20000ECB044600F080FB84F8365307B030BD5B
:103E300030B5012387B00025CDE9005302AB0ECB8E
:103E4000044600F071FB84F8355307B030BD10B55F
:103E5000044601F067FFD4E940239A420ABF94F870
:103E60000841002484F0010401F072FF204610BDD7
:103E700038B500F540750446284602F0CBFC04F541
:103E8000FA742046FFF7E3FF48B9284602F0E0FC49
:103E9000012002F026FC284602F0BCFCF1E728468F
:103EA00002F0D6FC002038BDA0F1E400FFF7E0BF2F
:103EB00038B50546E830FFF7CAFF80F00104284610
:103EC000E4B2FFF79DFF18B144F40054204638BD1A
:103ED00095F8FC32002BF9D144F01004F6E7A0F17C
:103EE000E400FFF7E5BF000038B504460D4601F0D9
:103EF00019FFD4F800312A78E2540133B3F5807FFA
:103F000005D90D490D484FF4AF7201F033FE94F816
:103F1000082108BF0023C4F800312AB1C4F80431D5
:103F2000BDE8384001F014BFD4F804219A4204BF20
:103F3000012384F80831F3E7DEA20008EFA20008AD
:103F400070B504460E4601F0EDFED4E940239A42D6
:103F500002D194F80851B5B1E35C3370D4F8043160
:103F60000133B3F5807F05D909490A484FF4AF7290
:103F700001F000FE4FF0000208BF1346C4F8043100
:103F800084F80821012501F0E3FE284670BD00BF3A
:103F9000DEA20008EFA2000810B586B0044668460D
:103FA00080E80C0006A800E90C00039110E9070066
:103FB000034BE36084E80700204606B010BD00BF55
:103FC000D33D0008C36810B52BB9044904484FF429
:103FD000FD7201F0CFFDBDE8104018474BA300086B
:103FE00056A3000884B070B505AC064684E80E0000
:103FF00001F098FE94E80F0006F5497585E80F007A
:10400000D6F8303343B147F6FF713046FFF750FF23
:1040100010B12846FFF7D6FFBDE8704004B001F0AC
:1040200097BEA0F1E400FFF7DDBF08B5D0F830334C
:104030001BB100F54970FFF7C5FF08BD73B500F16E
:10404000E80504462846FFF702FF064694F8F031DB
:1040500073B9204600F046FA50B1204600F0DCFA71
:104060000DF107018DF807002846FFF73DFFEDE74A
:1040700094F836332BB194F8F03113B12046FFF7A2
:10408000C9FE4EB12846FFF7E2FE28B9204602B02D
:10409000BDE87040FFF7C9BF02B070BD70B50446FF
:1040A00088B001F03FFE94F8BC30EBB194F83633A1
:1040B000D3B92046FFF7C2FF94F8F061A6B90C4BC4
:1040C0000B4A04ADCDE90236214633462846FFF7B8
:1040D00063FF079B0196009395E80E00204600F0D1
:1040E00023FA012384F8363301F032FE08B070BDA4
:1040F0003D40000838B5044600F0B0F9104B0025EB
:1041000003F1080250332260C4F8E430C4E97A5560
:10411000C4E9BD5584F8F05184F8FC5204F54070B0
:1041200002F070FB01232046C4F83053A4F8343366
:1041300084F83653C4F83853FFF7B0FF204638BD33
:1041400064A300082DE9F743064689461546AAB33D
:1041500000F54077384602F05DFB06F1E80840467E
:10416000FFF775FE044698B196F83433384633B9F4
:1041700002F06EFB6FF00A0003B0BDE8F08302F0BE
:1041800067FB012002F0ADFA384602F043FBE6E798
:1041900009EB040140460191FFF759FE30B901993E
:1041A00040460134FFF7CCFEA542F1D13046FFF77F
:1041B00075FF384602F04CFB2046DDE71046DBE792
:1041C000A0F1E400FFF7BEBF37B500F54075044627
:1041D0002846019102F01EFB0199204600F02FFABB
:1041E0002046FFF75BFF284602F032FB002003B0B9
:1041F00030BDA0F1E400FFF7E7BF73B5044690F8C7
:10420000FC5200F5FA76204600F07DF958B10DF128
:1042100007013046FFF794FE28B19DF807102046AD
:1042200000F0FDF9EFE794F835333BB104F5FA708F
:10423000FFF70DFE10B12046FFF7FAFD4DB194F8DF
:10424000FC3233B92046FFF7DBFD10B92046FFF7FB
:10425000ECFE02B070BDF8B505460C46164600F5FA
:10426000FA773846FFF7F3FD40B1A719BC4209D0F1
:1042700014F8011B284600F0D2F9F7E72846FFF7AB
:10428000BCFFEEE73046F8BD70B5044688B001F0DB
:1042900049FD94F8BD30FBB194F83533E3B92046BD
:1042A000FFF7ABFF04F5FA70FFF7D1FDA0B90C4B97
:1042B0000B4A04ADCDE90230214603462846FFF7FC
:1042C0006BFE0126079B0196009395E80E002046A1
:1042D00000F02AF984F8356301F03AFD08B070BDAA
:1042E000FB4100082DE9F04706460F461546002A17
:1042F00043D001F014FD044630B12A463946304619
:10430000BDE8F047FFF7A7BF06F54078404602F04A
:1043100081FA06F5FA7996F8FC3273B9A7EB040A2C
:10432000A5420AEB040719D996F8FC32B3B939460D
:104330004846FFF7D9FD0134F2E796F8343393B1DC
:10434000404602F085FA012002F0CBF9404602F027
:1043500061FA96F8FC32002BF2D1DFE73046FFF726
:1043600093FFA542D7D8404602F072FA002C14BF42
:1043700020466FF00A00BDE8F0871046FBE7A0F189
:10438000E400FFF7AFBF37B500F540750446284697
:10439000019102F03FFA0199204600F099F9204678
:1043A000FFF772FF284602F053FA002003B030BD39
:1043B000A0F1E400FFF7E7BF83681A6843681A4278
:1043C00014BF0120002070477047426810B48AB1C2
:1043D000D0E9033404F0010123B959B161105158F7
:1043E000CB5801E00029F9D1816802EB64005DF847
:1043F000044B18475DF8044B7047000070B5044645
:1044000000F14C05D0F8C410284600F06DFDD4F83A
:10441000D820A2B1D4F8C8301BB9D4F8CC30D80712
:104420000DD5D4F8E010D4F8DC304E1004EB610068
:10443000C90744BFA159CB5894F8D0109847D4F875
:10444000B8102846FDF71EF9224628460249BDE865
:104450007040FCF73BBB00BF2D460008F8B51E4B73
:1044600003601E4B436000251D4B856017464C22A0
:1044700004460E46C0E90555C0E90755C36085846A
:1044800045634564A0F8485029460061104404F093
:104490000DFBC4E92D57C4F8A45040F20113A4F851
:1044A000BC30B388A4F8BE30B389A4F8C0304FF64E
:1044B000FF732046C4E93165C4E93655C4F8CC50D1
:1044C00084F8D050A4F8D230A4F8D430C4F8E05026
:1044D000FFF794FF2046F8BD04A40008FD43000840
:1044E000CB43000838B50546044655F84C3B1B68DD
:1044F00098472846FDF762F8236805465B68204622
:104500009847284638BD38B50546044655F84C3B13
:104510001B6898472846FDF761F8236805465B68E5
:1045200020469847284638BD84B02DE9F04709AEAB
:1045300086E80E0003689DF834701B6805469847AE
:1045400095F8BC303C0103B18FB195F8BD300BB18B
:10455000012F0CD096E80F002C44983484E80F000B
:104560002B682846BDE8F0475B6804B0184704F1A3
:10457000980801F0D7FBA8440C9AD8F80C3005F144
:104580004C0982B10BB901F011FE96E80F002C44E2
:10459000983484E80F00012239464846FCF7A2FA15
:1045A00001F0D6FBDCE70BB101F016FE0022C8F8E3
:1045B0000C20F1E770B5124B036086B00026CDE900
:1045C000006602AD95E80E000446FFF7ADFF01233B
:1045D000CDE90063204695E80E00FFF7A5FF94F8AB
:1045E000BC3013B994F8BD301BB104F14C00FCF79A
:1045F0007DFF206A08B101F0EDF8204606B070BDDD
:1046000004A4000810B50446FFF7D4FF2046E421B7
:1046100002F065F8204610BD4C30FCF7B3BA10B577
:104620004C300C46FCF7E2FA204610BD00EB0110BE
:10463000983008B5C3680BB1FFF7C4FC08BD036828
:1046400070B504461B680D46984794F8BC30AB42E1
:104650002BD065B194F8BD304BB9A2686368511096
:1046600004EB6200D20744BF6258D358984701F068
:1046700059FB05B3D4F8A4305BB104F19800FFF7FF
:10468000A1FC01F093FD0122002104F14C00FCF794
:1046900029FA01F05DFB84F8BC5035B994F8BD30BF
:1046A0001BB904F14C00FCF721FF236820465B682E
:1046B000BDE8704018472A46294604F14C00FCF733
:1046C00011FAD4F8A430002BE3D001F085FDE0E727
:1046D000036870B504461B680D46984794F8BD30D2
:1046E000AB422BD065B194F8BC304BB9A26863687B
:1046F000511004EB6200D20744BF6258D358984768
:1047000001F010FB05B3D4F8B4305BB104F1A8009C
:10471000FFF758FC01F04AFD0122114604F14C005C
:10472000FCF7E0F901F014FB84F8BD5035B994F8BA
:10473000BC301BB904F14C00FCF7D8FE23682046BE
:104740005B68BDE8704018472A46012104F14C001F
:10475000FCF7C8F9D4F8B430002BE3D001F03CFDED
:10476000E0E7437D10B504461BB1037D0BB101F0BA
:1047700033FD204610BD13B5044601A801F032F800
:10478000637D53B9237D0BB101F010FD206900F06A
:1047900087FBC4E900010123637501A801F02AF831
:1047A00002B010BD37B504460D4601A801F01AF855
:1047B00000230022C4E900236B7D4BB1286900F07F
:1047C0006FFBD5E90032C01A61EB0201C4E90001B8
:1047D00001A801F00FF8204603B030BD1FB5044614
:1047E00003A800F0FFFF21466846FFF7DBFFD4E98E
:1047F00002300099019A5B1842EB0002C4E90232D0
:10480000637D1BB1237D0BB101F0E6FC00236375D2
:1048100003A800F0EFFF04B010BD30B585B004462A
:104820000D4603A800F0DEFF29466846FFF7BAFFF1
:10483000D5E90210009B019A5B1842EB0002C4E923
:10484000003203A800F0D6FF204605B030BD0000BE
:1048500007B501466846FFF7E0FFDDE9000104F017
:10486000F1FFDFED057A07EE100AC7EE277A17EEA3
:10487000900A03B05DF804FB0024744913B50446A4
:1048800001A800F0AFFF206900F00AFB002200231E
:10489000C4E90001C4E9022301A800F0ABFF02B0A3
:1048A00010BDD0B5002300260027C0E90067C0E98D
:1048B00002670446016102754375FFF7DFFF20467A
:1048C000D0BD10B5044600F001FB01220146204690
:1048D000FFF7E7FF204610BD03681B68184700007C
:1048E00010B50446074B236000220023C4E90223CD
:1048F00000230846A161C4E90433034900F05FFACC
:10490000204610BD1CA40008D948000807B5009037
:1049100000F10801806900F090FA03B05DF804FB33
:1049200000F10801806900F0A0BA704770470000EC
:10493000EFF3108372B6054A117831B90449DB43AD
:1049400003F001030B70012313707047510700201F
:104950005007002008B5EFF31083DB4313F0010389
:1049600004D006490648362201F004F9054A1370BE
:10497000054B1B7803B162B608BD00BF5BA40008FD
:1049800077A400085107002050070020014B187839
:10499000704700BF5107002070B50E46044615460B
:1049A000FCF740FA013609D020460021FCF760FAF6
:1049B00029462046BDE87040FCF756BA70BDF8B5F0
:1049C0000F46044615461E46FCF72CFA01370FD059
:1049D00023685EB1A268136020460121FCF748FA03
:1049E00029462046BDE8F840FCF73EBAE268F2E707
:1049F000F8BD0022FFF7D0BF13460022FFF7DFBF4C
:104A00000022FFF7F9BF00000048704794A4000897
:104A1000024B1B680BB10248184770470C0000207E
:104A200094A40008884207B502460AD0431C08D067
:104A3000013105D0002305490548009301F000FB32
:104A40000146084603B05DF804FB00BFC0A400089F
:104A500030010180B1F900305A1C01D1184670476D
:104A6000834201D1486870470C31F3E7421C13B50B
:104A700004460AD0FFF7EEFF431C06D10023044989
:104A800004480093224601F0DBFA02B010BD00BFDB
:104A9000D1A4000830010180B1F900305A1C01D1C5
:104AA00018467047834201D1886870470C31F3E79C
:104AB000F8B5446894F832608EBB03685B68984729
:104AC000216A81422BD0236994F934202062411A53
:104AD0001940A368A1FB03C1CAB1656A15EB0C05B7
:104AE00041F10001002A1BDBC2F12000A2F12003EA
:104AF00025FA02FC01FA00F021FA03F34CEA000C5B
:104B00004CEA030CD1400CFA02F2AA1A6262D4E910
:104B10000A3213EB0C0341EB0201C4E90A31F8BD80
:104B2000E76833463A46284604F0CAFE844607FB47
:104B300010506062EBE7824206D98A420BD9884264
:104B400094BF002001207047884206D98A428CBF5A
:104B500000200120704701207047002070470000AE
:104B60002DE9F74347683B6B23F07F4929F0FF09A4
:104B70000646B9F1000F5FD1FFF79AFF7B68002B63
:104B80005DD0D3E90041D7E90A23A2428B4105D386
:104B900033685B6903B0BDE8F04318477568D5E931
:104BA0000A03D5E90582241A61EB030CEB69A242E2
:104BB00073EB0C031ED3EB68A3FB044103FB0C1146
:104BC00095F933309BB1AA68501E001941F10001DC
:104BD000002B1DDBC3F1200CA3F1200220FA03F40B
:104BE00001FA0CFC44EA0C0421FA02F21443A04539
:104BF00028BFA0462A6A3B6A90442A6908EA020252
:104C000093420AD11349144840F2C91200F0B2FF8E
:104C10004B4604F055FE0446E9E73368019210461E
:104C20001B69984733685B689847019A0146386A60
:104C3000FFF781FF0028ABD103B0BDE8F0837B69AB
:104C4000386A3A69184433681B69104003B0BDE8FC
:104C5000F04318472CA500083EA500084368F7B5A7
:104C600093F830200546002A7CD193F83230002B8F
:104C700078D103681B6898472B68DB6998470368FD
:104C80002BB93949394800931A4601F0D9F9384C03
:104C900019462246B1FBF4F402FB14141146002C11
:104CA000F7D16E68324CB4FBF2FC1F21C6F808C085
:104CB0000124013903D304FA01F7BC45F9D1B3FB50
:104CC000F2F286F83310F2601F23012101FA03F497
:104CD000A24201D0013BF9D286F834304468201F4B
:104CE0001C2805D900232349234800931A46CCE702
:104CF000202C1CBF0123A3404FF0070101FA00F153
:104D000014BF03F1FF334FF0FF330027501E336110
:104D100071614FEAE173A1FB0C410CFB031C47F1ED
:104D2000FF3120184CEB01013B4604F0C9FD2B6814
:104D3000C6E90601C6E900775B6898476B68306290
:104D4000002101220020C3E90A015F6228461A8679
:104D500083F83270FFF7ACFE284603B0BDE8F040A0
:104D6000FFF7FEBE03B0F0BD62A500080E0104808F
:104D700040420F007BA5000805010480F0B445689F
:104D8000049C8C60C1E900236C6800262CB9CC60BF
:104D900066B96960F0BCFFF7E3BE2768BA4267688E
:104DA00073EB0707F3D32646E468EFE7F160D5E934
:104DB0000A41944271EB0303ECD2F0BC704738B562
:104DC00005460C46FFF74AFF00F0ACFF6B681C601D
:104DD000BDE8384000F0BCBF70B5054600F0A2FF4A
:104DE000D5E90034DB68984794F832301BB1BDE850
:104DF000704000F0ADBF012384F831306368ABB17F
:104E00002846FFF755FE6368D4E90A61D3E900023A
:104E1000864271EB020209D36A68DB6852686360FC
:104E20002368002BEAD090689847E7E7002384F8CE
:104E300031302846FFF794FED9E710B586B0CDE9AA
:104E400004210393089C029000F06CFF0298FFF786
:104E50002FFEDDE90332059902980094FFF78EFFDB
:104E600006B0BDE8104000F073BF38B505460C46EB
:104E700000F058FF6A685368A34209D1DB685360A9
:104E80002846FFF76DFEBDE8384000F061BF1346CD
:104E9000002BF8D0DA68A242F9D1E268DA60F2E7D2
:104EA00013B50446FFF7DAFE00F03CFF2046FFF79B
:104EB000FFFD6368D3E90A01CDE9000100F048FF76
:104EC000DDE9000102B010BD7047000000487047E6
:104ED000B8A50008024B1B680BB102481847704781
:104EE00010000020B8A50008B1F90C20B1F9041099
:104EF000FCF740BC08B5BFF35F8F1D4BD3F8901093
:104F0000080A10F0FC0FC1F3072104D119491A480F
:104F10003B2200F02FFE0022C3F8942010468A4264
:104F20001FD11022C3F89C20144AC3F8A0201322DA
:104F3000C3F89C20124AC3F8A0201122C3F89C2079
:104F4000104AC3F8A020104AC3F89C200F4AC3F8A7
:104F5000A0200722C3F89420BFF34F8FBFF36F8FB9
:104F600008BDC3F89820C3F8A0000132D7E700BFFE
:104F700000ED00E023A6000832A6000839F0020682
:104F8000390702133FF50B1312000080390002139A
:104F9000102300F007B8202300F004B8302300F0FD
:104FA00001B840239C46F0B404AE7546E80801D32E
:104FB000EFF309860E4F0FCE0FC70FBC0FC7404649
:104FC000494652465B460FC71DCE3100A60A00D3A4
:104FD00004316E0900D248311FC7EFF309806946DA
:104FE000EFF3148663C76046014900F079F800BF0B
:104FF000C8070020F0B52C4E2C4F85B00024354654
:10500000214656F8042B3846013400F06FFE0D2C73
:10501000F6D1AB6C02936B6C01932B6C244C009318
:10502000D5E90E23696B234800F060FE2168224811
:1050300000F05CFEE16AA26AA36AA06A266BE76BD5
:10504000000CCDE901670090C3F307231B48D2B2DF
:1050500000F04CFEA36A1E0603D5616B184800F0F1
:1050600045FEA36A180403D5A16B164800F03EFE66
:10507000EB6C190712D5144800F038FE2B6DDA07D7
:105080000FD5124800F032FEEB6C5B074CBF1048A6
:10509000104805B0BDE8F04000F028BE0E4800F012
:1050A00025FE0E48EEE700BFC80700203FA6000817
:1050B00000ED00E04DA600089CA60008AAA6000886
:1050C000F9A6000807A7000815A7000824A70008EC
:1050D00054A7000860A7000844A7000831A70008EB
:1050E00007B504460D461A48012100F072FD68BB61
:1050F000184800F0FBFD302C19D0402C1CD0202C7F
:105100001FD11548154C00F0F1FD154800F0EEFDDB
:10511000FFF770FF134800F0E9FD0D4B00221A70F5
:105120000023114900932A46204600F089FF0F48CA
:105130000F4C00F0DBFDE8E70E480F4C00F0D6FD09
:10514000E3E70E480E4C00F0D1FDDEE70024E7E770
:10515000980800206CA7000895A700083E01FF8072
:10516000C2A70008CDA70008ECA70008A4A7000864
:105170003F01FF80ADA700084001FF80B8A70008ED
:105180003D01FF8070B5144612686FF00046B242D0
:105190000546049807D238B10146184603F0BCFB17
:1051A000431C05D1206070BD15B18A4238BFAB5495
:1051B000236801332360F6E72DE9F04F2DED028BD4
:1051C0008DB000279DF870309DF868B0049380463C
:1051D000894692463946142207A8DDE91845069704
:1051E00003F064FC049BBB4214BF30232023BBF1BB
:1051F000010F08EE103A26D1BD4228DA644265EB71
:1052000045055F4606AB0393ABF10203DBB2002614
:105210000593059B012B3CD8BBF1020F0CBF384A0C
:10522000384A04F00F032409D35C039A44EA057456
:1052300013702D09039B0133039354EA050306F110
:105240000106E6D10AE0ABF104035F425F4154EA94
:105250000503D7D130238DF8183001265FB3049BA6
:105260003BB11D9B009352462D2349464046FFF714
:1052700089FF1B9B01369E4220DB049B3BB91D9B93
:10528000009352462D2349464046FFF77BFF013EDF
:1052900024E0204629460A22002304F011FB039B48
:1052A00030321A70204629460A22002304F008FBF7
:1052B00004460D46BEE71B9B9E420FDA1D9B0093E2
:1052C000524618EE103A49464046FFF75BFF1B9BDB
:1052D000013BB3421B93F1DC002FCED106AC08E0BA
:1052E0001D9B0093013E5246A35D49464046FFF791
:1052F00049FF002EF4D10DB0BDEC028BBDE8F08F5C
:10530000FCA700080CA800082DE9F04F2DED048B38
:1053100093B01C46002382468B4611931746BAB1C0
:10532000994215DB0CBF012301F1FF3B0E930026D0
:10533000BB5D9BB9BAF1000F0AD00E9B43B9119B1C
:105340005B4595BF0E9A0E9B0AF803200AF80B30B6
:10535000119813B0BDEC048BBDE8F08F252B40F005
:105360000282731CFA5C203AD2B20D2A06D842F6A9
:10537000090121FA02F2D20748BFB31CFA5C2A2ABB
:105380001ED14FF00008591C0434CDF820807A5CFF
:105390002E2A07EB010353D15A782A2A28D04FF03E
:1053A0000009C7F101000A25C11813F8012F303A8E
:1053B0005FFA82FCBCF1090F1DD805FB0929F3E750
:1053C000302A13D10133FA5C302AFBD00122089233
:1053D0003B444FF000080A25D91B13F8012B303A43
:1053E000D0B20928D3D805FB0828F5E70022EEE75C
:1053F00054F8049B02317B5C682B24D17B185B78CA
:10540000682B0CBF7222112202F003030B440C9391
:10541000FD5C642D01D0692D3FD1822A2DD1073446
:1054200024F007031C465B6854F8082B209905916B
:1054300008990092CDE9038101210291019346E090
:105440006FF00049D7E76C2B06D17B185B786C2B8B
:105450000CBF82222122D7E76A2B08D07A2B08D0F2
:10546000742B08D04C2B14BF00226122CCE73122D0
:10547000CAE74122C8E75122C6E7112A54F8043B83
:1054800007D0722A15BF1A465AB2D31743F3C01376
:10549000CCE71AB243F3C033C8E7752D03D005F04B
:1054A000DF03582B2FD1822A17D1073424F00702AB
:1054B0001446526854F8083B209905910899752DB7
:1054C000CDE9038119D10021CDE90032029111AA61
:1054D00059465046FFF770FE02E1512A54F8043B4A
:1054E00009D0722A03D0112A03D00022E4E7DBB2EC
:1054F000FBE79BB2F9E7DA17DEE7582D01D103216C
:10550000E2E70221E0E705F0DE03462B40F0DC8015
:10551000073424F00704B4EC027B51EC170BB0EE17
:10552000479AF0EE679A04F0E3F90B9105460A9169
:1055300004F002F802460B4651EC190B03F072FE20
:105540000B46024643EC182B6FF00043994500F0E0
:105550008480B9F1000F40F08280874B002204F074
:1055600097F8002800F097800B9B013543F100036A
:105570000A93CDF81C90CDF824903DE00D9802FBE5
:1055800006F1A0FB02060D900E4401334B45F5DBFE
:105590000D98314603F0D0FF53EC182B03F014FDA7
:1055A000002241EC180B002351EC190B04F052F8C7
:1055B0000F90002859D053EC182B6F49002003F0AE
:1055C00031FE04F095F90D9B0790984271EB0603AC
:1055D000099107DB0B9B013D63F100030A93002354
:1055E0000793099309F10103A8EB030828EAE87877
:1055F000B0EE498AF0EE698A0A9B2B4359D151ECEF
:10560000180B0022002304F025F8002851D0209B1D
:105610000593089BCDE90383042302930022002312
:10562000CDE9002311AA59465046FFF7C5FDB9F14F
:10563000000F55D0209B009311AA2E2359465046A7
:10564000FFF7A0FD209B05930123CDE903930023E1
:105650000293079B0093099BF0E64FF00609012295
:1056600000230D921E460A2290E7434B002251EC84
:10567000180B03F0D9FD04F03BF90D9B07909842FD
:1056800071EB06030991ADDB0B9B013543F1000380
:105690000A930F9BA4E7394B51EC180B002203F03F
:1056A000D9FF00283FF465AF0B9B013D63F1000378
:1056B0005EE7209B0593089B0095CDE903830123BA
:1056C00002930A9B0193ADE7632D0CD154F8043B80
:1056D000209A0092DBB211AA59465046FFF752FDBC
:1056E0000C9E013624E6732D11D154F8045B05EBB2
:1056F00009062B78002BF3D0B542F1D0209A009206
:10570000594611AA5046FFF73DFD0135F1E7702DCE
:105710001BD1209B54F8045B009311AA30235946F7
:105720005046FFF72FFD209B009311AA782359467E
:105730005046FFF727FD209B05930023CDE9033357
:10574000032302930095EB1778E6209B009311AAA0
:10575000252359465046FFF715FD0C9B252D18BFF4
:1057600033460C93BCE7209A0092594611AA504642
:10577000FFF708FD0C96B3E70000E03F0000E0BF34
:105780000FB41FB50849096806AB896853F8042BA4
:10579000009100206FF000410393FFF7B5FD05B0C5
:1057A0005DF804EB04B07047C001002013B500247D
:1057B0000094FFF7A9FD02B010BD07B51346009095
:1057C0000A4600206FF00041FFF79EFD03B05DF830
:1057D00004FB0000024B1B6803B11847704700BF71
:1057E0001C08002007B5019000F09CFA019803B056
:1057F0005DF804FB07B5019000F0AAFA019803B028
:105800005DF804FB036870B51B69012200210446A2
:105810009847051E0DDB236802221B6900212046E4
:1058200098472368064629461B6900222046984768
:105830003546284670BD0000034B186818B14FF07C
:10584000FF3101F0BFBF7047E8240020024B186809
:1058500008B101F0CFBF7047E824002008B5024925
:1058600002488E2200F086F95CA8000869A80008AA
:1058700010B504460846FFF713FBC4E900012046B3
:1058800010BD000010B50446FFF72AF820460A4B69
:1058900040F8203BA169FFF7EBFFD4E90823C4E9F6
:1058A0000A2300220023C4E90C230023C4E90E3399
:1058B00084F84030204610BD98A800084FF0FF3013
:1058C000704738B590F83F5004460DB1FFF7C6FF5A
:1058D000FFF726F894F84030A5872BB184F84050A4
:1058E000BDE8384000F078BC38BD10B5044601F181
:1058F000300000F077F9C4E90001204610BDD0E97E
:105900000C32013342F10002C0E90C32D0E90A3214
:1059100013F57A7342F10002C0E90A327047D0E908
:105920000A2312F57A7243F10003FEF7EFBF37B591
:105930000D46044689696846FFF79AFFD5E90A32A1
:1059400000980199C01A61EB0201B0F57A7F71F1FC
:10595000000306D200220023C4E90023204603B03E
:1059600030BDB0F5FA6F71F1000301D20122F2E708
:1059700000294FF47A724FF00003D8BF002103F0E2
:105980009FFFC4E90001E9E791F83F30F7B505460C
:105990000C4613B991F83C7027B112491248E52220
:1059A00000F0E8F86846FFF7C2FFDDE900364FF483
:1059B0007A70A763A3FB007200FB0622D4E90A10E9
:1059C000C91942EB0002C4E90A12D4E90C125B18AF
:1059D00042EB06022846C4E90C32C5E9003203B0A6
:1059E000F0BD00BF5CA8000873A800082DE9F743CC
:1059F0001F4690F83F300446164623B131493248DD
:105A0000582200F0B7F890F83C305BB90146684680
:105A1000FFF7BAFF009BB342019BBB4105D30123B3
:105A200084F83D3003B0BDE8F08321466846FFF7B7
:105A30005CFF009BB6EB0308019B67EB03094FF487
:105A40007A73A6FB036503FB0757D4E90823B6184E
:105A500094F8402047EB03070123A3876AB9A269A2
:105A6000126892F820203ABB84F8403000F09EFB88
:105A7000B8F1050F79F100030DD2002384F83E3010
:105A800094F8403023B9012384F8403000F08EFBB5
:105A900032463B460AE094F84030002BEDD101231A
:105AA000B6F57A6284F83E3067F10003204603B011
:105AB000BDE8F043FEF72ABFB8F1050F79F1000306
:105AC000DBD3ECE75CA8000869A80008024B4FF0A4
:105AD00080625A60704700BF00ED00E008B5012108
